{"abi":[{"type":"constructor","inputs":[],"stateMutability":"nonpayable"},{"type":"function","name":"addClaimTopic","inputs":[{"name":"claimTopic","type":"uint256","internalType":"uint256"}],"outputs":[],"stateMutability":"nonpayable"},{"type":"function","name":"addTrustedIssuer","inputs":[{"name":"trustedIssuer","type":"address","internalType":"contract IClaimIssuer"},{"name":"claimTopics","type":"uint256[]","internalType":"uint256[]"}],"outputs":[],"stateMutability":"nonpayable"},{"type":"function","name":"claimTopicsToTrustedIssuers","inputs":[{"name":"","type":"uint256","internalType":"uint256"},{"name":"","type":"uint256","internalType":"uint256"}],"outputs":[{"name":"","type":"address","internalType":"contract IClaimIssuer"}],"stateMutability":"view"},{"type":"function","name":"getTrustedIssuerClaimTopics","inputs":[{"name":"trustedIssuer","type":"address","internalType":"contract IClaimIssuer"}],"outputs":[{"name":"","type":"uint256[]","internalType":"uint256[]"}],"stateMutability":"view"},{"type":"function","name":"getTrustedIssuers","inputs":[],"outputs":[{"name":"","type":"address[]","internalType":"contract IClaimIssuer[]"}],"stateMutability":"view"},{"type":"function","name":"getTrustedIssuersForClaimTopic","inputs":[{"name":"claimTopic","type":"uint256","internalType":"uint256"}],"outputs":[{"name":"","type":"address[]","internalType":"contract IClaimIssuer[]"}],"stateMutability":"view"},{"type":"function","name":"hasClaimTopic","inputs":[{"name":"issuer","type":"address","internalType":"address"},{"name":"claimTopic","type":"uint256","internalType":"uint256"}],"outputs":[{"name":"","type":"bool","internalType":"bool"}],"stateMutability":"view"},{"type":"function","name":"isClaimTopicRequired","inputs":[{"name":"claimTopic","type":"uint256","internalType":"uint256"}],"outputs":[{"name":"","type":"bool","internalType":"bool"}],"stateMutability":"view"},{"type":"function","name":"isTrustedIssuer","inputs":[{"name":"issuer","type":"address","internalType":"address"}],"outputs":[{"name":"","type":"bool","internalType":"bool"}],"stateMutability":"view"},{"type":"function","name":"owner","inputs":[],"outputs":[{"name":"","type":"address","internalType":"address"}],"stateMutability":"view"},{"type":"function","name":"removeClaimTopic","inputs":[{"name":"claimTopic","type":"uint256","internalType":"uint256"}],"outputs":[],"stateMutability":"nonpayable"},{"type":"function","name":"removeTrustedIssuer","inputs":[{"name":"trustedIssuer","type":"address","internalType":"contract IClaimIssuer"}],"outputs":[],"stateMutability":"nonpayable"},{"type":"function","name":"renounceOwnership","inputs":[],"outputs":[],"stateMutability":"nonpayable"},{"type":"function","name":"requiredClaimTopics","inputs":[{"name":"","type":"uint256","internalType":"uint256"}],"outputs":[{"name":"","type":"uint256","internalType":"uint256"}],"stateMutability":"view"},{"type":"function","name":"transferOwnership","inputs":[{"name":"newOwner","type":"address","internalType":"address"}],"outputs":[],"stateMutability":"nonpayable"},{"type":"function","name":"trustedIssuerClaimTopics","inputs":[{"name":"","type":"address","internalType":"address"},{"name":"","type":"uint256","internalType":"uint256"}],"outputs":[{"name":"","type":"uint256","internalType":"uint256"}],"stateMutability":"view"},{"type":"function","name":"trustedIssuers","inputs":[{"name":"","type":"uint256","internalType":"uint256"}],"outputs":[{"name":"","type":"address","internalType":"contract IClaimIssuer"}],"stateMutability":"view"},{"type":"function","name":"updateIssuerClaimTopics","inputs":[{"name":"trustedIssuer","type":"address","internalType":"contract IClaimIssuer"},{"name":"newClaimTopics","type":"uint256[]","internalType":"uint256[]"}],"outputs":[],"stateMutability":"nonpayable"},{"type":"function","name":"verify","inputs":[{"name":"identity","type":"address","internalType":"address"}],"outputs":[{"name":"isVerified","type":"bool","internalType":"bool"}],"stateMutability":"view"},{"type":"event","name":"ClaimTopicAdded","inputs":[{"name":"claimTopic","type":"uint256","indexed":true,"internalType":"uint256"}],"anonymous":false},{"type":"event","name":"ClaimTopicRemoved","inputs":[{"name":"claimTopic","type":"uint256","indexed":true,"internalType":"uint256"}],"anonymous":false},{"type":"event","name":"ClaimTopicsUpdated","inputs":[{"name":"trustedIssuer","type":"address","indexed":true,"internalType":"contract IClaimIssuer"},{"name":"claimTopics","type":"uint256[]","indexed":false,"internalType":"uint256[]"}],"anonymous":false},{"type":"event","name":"OwnershipTransferred","inputs":[{"name":"previousOwner","type":"address","indexed":true,"internalType":"address"},{"name":"newOwner","type":"address","indexed":true,"internalType":"address"}],"anonymous":false},{"type":"event","name":"TrustedIssuerAdded","inputs":[{"name":"trustedIssuer","type":"address","indexed":true,"internalType":"contract IClaimIssuer"},{"name":"claimTopics","type":"uint256[]","indexed":false,"internalType":"uint256[]"}],"anonymous":false},{"type":"event","name":"TrustedIssuerRemoved","inputs":[{"name":"trustedIssuer","type":"address","indexed":true,"internalType":"contract IClaimIssuer"}],"anonymous":false},{"type":"error","name":"OwnableInvalidOwner","inputs":[{"name":"owner","type":"address","internalType":"address"}]},{"type":"error","name":"OwnableUnauthorizedAccount","inputs":[{"name":"account","type":"address","internalType":"address"}]}],"bytecode":{"object":"0x6080604052348015600f57600080fd5b503380603557604051631e4fbdf760e01b81526000600482015260240160405180910390fd5b603c816041565b506091565b600080546001600160a01b038381166001600160a01b0319831681178455604051919092169283917f8be0079c531659141344cd1fd0a4f28419497f9722a3daafe3b4186f6b6457e09190a35050565b611d0f806100a06000396000f3fe608060405234801561001057600080fd5b50600436106101215760003560e01c8063b5fa8693116100ad578063c7b2255111610071578063c7b2255114610276578063c801dd4014610289578063d9dd24c51461029c578063ef2ed1a4146102a4578063f2fde38b146102b757600080fd5b8063b5fa8693146101fc578063b93d28eb1461021d578063ba64c34114610230578063be36359f14610243578063c28fb2781461025657600080fd5b806363a9c3d7116100f457806363a9c3d714610196578063715018a6146101a95780638da5cb5b146101b157806393e9f801146101d65780639f63ea98146101e957600080fd5b806304bc7e8414610126578063082978461461013b57806334a899871461014e57806352c111d114610176575b600080fd5b610139610134366004611730565b6102ca565b005b6101396101493660046117ba565b610649565b61016161015c3660046117d3565b61072f565b60405190151581526020015b60405180910390f35b6101896101843660046117ba565b6107e4565b60405161016d91906117ff565b6101616101a436600461184b565b610850565b610139610c26565b6000546001600160a01b03165b6040516001600160a01b03909116815260200161016d565b6101be6101e436600461186f565b610c3a565b6101396101f7366004611730565b610c72565b61020f61020a3660046117ba565b610ef1565b60405190815260200161016d565b61013961022b36600461184b565b610f12565b61020f61023e3660046117d3565b611294565b6101616102513660046117ba565b6112c5565b61026961026436600461184b565b611315565b60405161016d9190611891565b6101396102843660046117ba565b6113e7565b6101be6102973660046117ba565b61152c565b610189611556565b6101616102b236600461184b565b6115b8565b6101396102c536600461184b565b6115e6565b6102d2611624565b6001600160a01b0383166103015760405162461bcd60e51b81526004016102f8906118c9565b60405180910390fd5b6001600160a01b038316600090815260036020526040812054900361035f5760405162461bcd60e51b81526020600482015260146024820152732727aa1030903a393ab9ba32b21034b9b9bab2b960611b60448201526064016102f8565b600f8111156103805760405162461bcd60e51b81526004016102f890611900565b806103cd5760405162461bcd60e51b815260206004820152601c60248201527f636c61696d20746f706963732063616e6e6f7420626520656d7074790000000060448201526064016102f8565b60005b6001600160a01b03841660009081526003602052604090205481101561056c576001600160a01b038416600090815260036020526040812080548390811061041a5761041a611945565b600091825260208083209091015480835260049091526040822054909250905b8181101561056157600083815260046020526040902080546001600160a01b03891691908390811061046e5761046e611945565b6000918252602090912001546001600160a01b0316036105595760008381526004602052604090206104a1600184611971565b815481106104b1576104b1611945565b60009182526020808320909101548583526004909152604090912080546001600160a01b0390921691839081106104ea576104ea611945565b600091825260208083209190910180546001600160a01b0319166001600160a01b03949094169390931790925584815260049091526040902080548061053257610532611984565b600082815260209020810160001990810180546001600160a01b0319169055019055610561565b60010161043a565b5050506001016103d0565b506001600160a01b03831660009081526003602052604090206105909083836116a1565b5060005b8181101561060057600460008484848181106105b2576105b2611945565b602090810292909201358352508181019290925260400160009081208054600180820183559183529290912090910180546001600160a01b0319166001600160a01b03871617905501610594565b50826001600160a01b03167fec753cfc52044f61676f18a11e500093a9f2b1cd5e4942bc476f2b0438159bcf838360405161063c92919061199a565b60405180910390a2505050565b610651611624565b60015460005b8181101561072a57826001828154811061067357610673611945565b90600052602060002001540361072257600161068f8184611971565b8154811061069f5761069f611945565b9060005260206000200154600182815481106106bd576106bd611945565b60009182526020909120015560018054806106da576106da611984565b60019003818190600052602060002001600090559055827f0b1381093c776453c1bbe54fd68be1b235c65db61d099cb50d194b2991e0eec560405160405180910390a2505050565b600101610657565b505050565b6001600160a01b03821660009081526003602090815260408083208054825181850281018501909352808352849383018282801561078c57602002820191906000526020600020905b815481526020019060010190808311610778575b505083519394506000925050505b818110156107d657848382815181106107b5576107b5611945565b6020026020010151036107ce57600193505050506107de565b60010161079a565b506000925050505b92915050565b60008181526004602090815260409182902080548351818402810184019094528084526060939283018282801561084457602002820191906000526020600020905b81546001600160a01b03168152600190910190602001808311610826575b50505050509050919050565b600154600090810361086457506001919050565b600080600060608060005b600154811015610c18576000306001600160a01b03166352c111d16001848154811061089d5761089d611945565b90600052602060002001546040518263ffffffff1660e01b81526004016108c691815260200190565b600060405180830381865afa1580156108e3573d6000803e3d6000fd5b505050506040513d6000823e601f3d908101601f1916820160405261090b9190810190611a1a565b905080516000036109255750600098975050505050505050565b6000815167ffffffffffffffff811115610941576109416119d3565b60405190808252806020026020018201604052801561096a578160200160208202803683370190505b50905060005b8251811015610a115782818151811061098b5761098b611945565b6020026020010151600185815481106109a6576109a6611945565b90600052602060002001546040516020016109d69291906001600160a01b03929092168252602082015260400190565b604051602081830303815290604052805190602001208282815181106109fe576109fe611945565b6020908102919091010152600101610970565b5060005b8151811015610c0d578a6001600160a01b031663c9100bcb838381518110610a3f57610a3f611945565b60200260200101516040518263ffffffff1660e01b8152600401610a6591815260200190565b600060405180830381865afa158015610a82573d6000803e3d6000fd5b505050506040513d6000823e601f3d908101601f19168201604052610aaa9190810190611b6a565b5060018054959e50939c50919a50985096509085908110610acd57610acd611945565b90600052602060002001548903610bd657866001600160a01b031663c0969a6e8c60018781548110610b0157610b01611945565b906000526020600020015489896040518563ffffffff1660e01b8152600401610b2d9493929190611c65565b602060405180830381865afa925050508015610b66575060408051601f3d908101601f19168201909252610b6391810190611c9e565b60015b610b945760018251610b789190611971565b8103610b8f575060009a9950505050505050505050565b610bfb565b8015610b9f57825191505b80158015610bb9575060018351610bb69190611971565b82145b15610bd0575060009b9a5050505050505050505050565b50610bfb565b60018251610be49190611971565b8103610bfb575060009a9950505050505050505050565b80610c0581611cc0565b915050610a15565b50505060010161086f565b506001979650505050505050565b610c2e611624565b610c386000611651565b565b60046020528160005260406000208181548110610c5657600080fd5b6000918252602090912001546001600160a01b03169150829050565b610c7a611624565b6001600160a01b038316610ca05760405162461bcd60e51b81526004016102f8906118c9565b6001600160a01b03831660009081526003602052604090205415610d065760405162461bcd60e51b815260206004820152601d60248201527f747275737465642049737375657220616c72656164792065786973747300000060448201526064016102f8565b80610d5f5760405162461bcd60e51b8152602060048201526024808201527f7472757374656420636c61696d20746f706963732063616e6e6f7420626520656044820152636d70747960e01b60648201526084016102f8565b600f811115610d805760405162461bcd60e51b81526004016102f890611900565b600254603211610de35760405162461bcd60e51b815260206004820152602860248201527f63616e6e6f742068617665206d6f7265207468616e2035302074727573746564604482015267206973737565727360c01b60648201526084016102f8565b60028054600181019091557f405787fa12a823e0f2b7631cc41b3ba8828b3321ca811111fa75cd3aa3bb5ace0180546001600160a01b0319166001600160a01b0385169081179091556000908152600360205260409020610e459083836116a1565b5060005b81811015610eb55760046000848484818110610e6757610e67611945565b602090810292909201358352508181019290925260400160009081208054600180820183559183529290912090910180546001600160a01b0319166001600160a01b03871617905501610e49565b50826001600160a01b03167ffedc33fd34859594822c0ff6f3f4f9fc279cc6d5cae53068f706a088e4500872838360405161063c92919061199a565b60018181548110610f0157600080fd5b600091825260209091200154905081565b610f1a611624565b6001600160a01b038116610f405760405162461bcd60e51b81526004016102f8906118c9565b6001600160a01b0381166000908152600360205260408120549003610f9e5760405162461bcd60e51b81526020600482015260146024820152732727aa1030903a393ab9ba32b21034b9b9bab2b960611b60448201526064016102f8565b60025460005b8181101561109a57826001600160a01b031660028281548110610fc957610fc9611945565b6000918252602090912001546001600160a01b031603611092576002610ff0600184611971565b8154811061100057611000611945565b600091825260209091200154600280546001600160a01b03909216918390811061102c5761102c611945565b9060005260206000200160006101000a8154816001600160a01b0302191690836001600160a01b03160217905550600280548061106b5761106b611984565b600082815260209020810160001990810180546001600160a01b031916905501905561109a565b600101610fa4565b5060005b6001600160a01b03831660009081526003602052604090205481101561123a576001600160a01b03831660009081526003602052604081208054839081106110e8576110e8611945565b600091825260208083209091015480835260049091526040822054909250905b8181101561122f57600083815260046020526040902080546001600160a01b03881691908390811061113c5761113c611945565b6000918252602090912001546001600160a01b03160361122757600083815260046020526040902061116f600184611971565b8154811061117f5761117f611945565b60009182526020808320909101548583526004909152604090912080546001600160a01b0390921691839081106111b8576111b8611945565b600091825260208083209190910180546001600160a01b0319166001600160a01b03949094169390931790925584815260049091526040902080548061120057611200611984565b600082815260209020810160001990810180546001600160a01b031916905501905561122f565b600101611108565b50505060010161109e565b506001600160a01b038216600090815260036020526040812061125c916116ec565b6040516001600160a01b038316907f2214ded40113cc3fb63fc206cafee88270b0a903dac7245d54efdde30ebb032190600090a25050565b600360205281600052604060002081815481106112b057600080fd5b90600052602060002001600091509150505481565b600154600090815b8181101561130b5783600182815481106112e9576112e9611945565b906000526020600020015403611303575060019392505050565b6001016112cd565b5060009392505050565b6001600160a01b0381166000908152600360205260408120546060910361137e5760405162461bcd60e51b815260206004820152601c60248201527f747275737465642049737375657220646f65736e27742065786973740000000060448201526064016102f8565b6001600160a01b0382166000908152600360209081526040918290208054835181840281018401909452808452909183018282801561084457602002820191906000526020600020905b8154815260200190600101908083116113c85750505050509050919050565b6113ef611624565b600154600f811061144d5760405162461bcd60e51b815260206004820152602260248201527f63616e6e6f742072657175697265206d6f7265207468616e20313520746f7069604482015261637360f01b60648201526084016102f8565b60005b818110156114cc57826001828154811061146c5761146c611945565b9060005260206000200154036114c45760405162461bcd60e51b815260206004820152601960248201527f636c61696d546f70696320616c7265616479206578697374730000000000000060448201526064016102f8565b600101611450565b5060018054808201825560009182527fb10e2d527612073b26eecdfd717e6a320cf44b4afac2b0732d9fcbe2b7fa0cf60183905560405183917f01c928b7f7ade2949e92366aa9454dbef3a416b731cf6ec786ba9595bbd814d691a25050565b6002818154811061153c57600080fd5b6000918252602090912001546001600160a01b0316905081565b606060028054806020026020016040519081016040528092919081815260200182805480156115ae57602002820191906000526020600020905b81546001600160a01b03168152600190910190602001808311611590575b5050505050905090565b6001600160a01b038116600090815260036020526040812054156115de57506001919050565b506000919050565b6115ee611624565b6001600160a01b03811661161857604051631e4fbdf760e01b8152600060048201526024016102f8565b61162181611651565b50565b6000546001600160a01b03163314610c385760405163118cdaa760e01b81523360048201526024016102f8565b600080546001600160a01b038381166001600160a01b0319831681178455604051919092169283917f8be0079c531659141344cd1fd0a4f28419497f9722a3daafe3b4186f6b6457e09190a35050565b8280548282559060005260206000209081019282156116dc579160200282015b828111156116dc5782358255916020019190600101906116c1565b506116e8929150611706565b5090565b508054600082559060005260206000209081019061162191905b5b808211156116e85760008155600101611707565b6001600160a01b038116811461162157600080fd5b60008060006040848603121561174557600080fd5b83356117508161171b565b9250602084013567ffffffffffffffff81111561176c57600080fd5b8401601f8101861361177d57600080fd5b803567ffffffffffffffff81111561179457600080fd5b8660208260051b84010111156117a957600080fd5b939660209190910195509293505050565b6000602082840312156117cc57600080fd5b5035919050565b600080604083850312156117e657600080fd5b82356117f18161171b565b946020939093013593505050565b602080825282518282018190526000918401906040840190835b818110156118405783516001600160a01b0316835260209384019390920191600101611819565b509095945050505050565b60006020828403121561185d57600080fd5b81356118688161171b565b9392505050565b6000806040838503121561188257600080fd5b50508035926020909101359150565b602080825282518282018190526000918401906040840190835b818110156118405783518352602093840193909201916001016118ab565b6020808252601f908201527f696e76616c696420617267756d656e74202d207a65726f206164647265737300604082015260600190565b60208082526025908201527f63616e6e6f742068617665206d6f7265207468616e20313520636c61696d20746040820152646f7069637360d81b606082015260800190565b634e487b7160e01b600052603260045260246000fd5b634e487b7160e01b600052601160045260246000fd5b818103818111156107de576107de61195b565b634e487b7160e01b600052603160045260246000fd5b6020808252810182905260006001600160fb1b038311156119ba57600080fd5b8260051b80856040850137919091016040019392505050565b634e487b7160e01b600052604160045260246000fd5b604051601f8201601f1916810167ffffffffffffffff81118282101715611a1257611a126119d3565b604052919050565b600060208284031215611a2c57600080fd5b815167ffffffffffffffff811115611a4357600080fd5b8201601f81018413611a5457600080fd5b805167ffffffffffffffff811115611a6e57611a6e6119d3565b8060051b611a7e602082016119e9565b91825260208184018101929081019087841115611a9a57600080fd5b6020850194505b83851015611ac85784519250611ab68361171b565b82825260209485019490910190611aa1565b979650505050505050565b60005b83811015611aee578181015183820152602001611ad6565b50506000910152565b60008067ffffffffffffffff841115611b1257611b126119d3565b50601f8301601f1916602001611b27816119e9565b915050828152838383011115611b3c57600080fd5b611868836020830184611ad3565b600082601f830112611b5b57600080fd5b61186883835160208501611af7565b60008060008060008060c08789031215611b8357600080fd5b8651602088015160408901519197509550611b9d8161171b565b606088015190945067ffffffffffffffff811115611bba57600080fd5b611bc689828a01611b4a565b935050608087015167ffffffffffffffff811115611be357600080fd5b611bef89828a01611b4a565b92505060a087015167ffffffffffffffff811115611c0c57600080fd5b8701601f81018913611c1d57600080fd5b611c2c89825160208401611af7565b9150509295509295509295565b60008151808452611c51816020860160208601611ad3565b601f01601f19169290920160200192915050565b60018060a01b0385168152836020820152608060408201526000611c8c6080830185611c39565b8281036060840152611ac88185611c39565b600060208284031215611cb057600080fd5b8151801515811461186857600080fd5b600060018201611cd257611cd261195b565b506001019056fea2646970667358221220419c6cff14ed0f0bb082b11f8cc8e687e96fc50d56254b90d7b9ff7a3464b98564736f6c634300081c0033","linkReferences":{}},"methodIdentifiers":{"addClaimTopic(uint256)":"c7b22551","addTrustedIssuer(address,uint256[])":"9f63ea98","claimTopicsToTrustedIssuers(uint256,uint256)":"93e9f801","getTrustedIssuerClaimTopics(address)":"c28fb278","getTrustedIssuers()":"d9dd24c5","getTrustedIssuersForClaimTopic(uint256)":"52c111d1","hasClaimTopic(address,uint256)":"34a89987","isClaimTopicRequired(uint256)":"be36359f","isTrustedIssuer(address)":"ef2ed1a4","owner()":"8da5cb5b","removeClaimTopic(uint256)":"08297846","removeTrustedIssuer(address)":"b93d28eb","renounceOwnership()":"715018a6","requiredClaimTopics(uint256)":"b5fa8693","transferOwnership(address)":"f2fde38b","trustedIssuerClaimTopics(address,uint256)":"ba64c341","trustedIssuers(uint256)":"c801dd40","updateIssuerClaimTopics(address,uint256[])":"04bc7e84","verify(address)":"63a9c3d7"},"id":16}