{"abi":[{"type":"constructor","inputs":[],"stateMutability":"nonpayable"},{"type":"function","name":"addClaimTopic","inputs":[{"name":"claimTopic","type":"uint256","internalType":"uint256"}],"outputs":[],"stateMutability":"nonpayable"},{"type":"function","name":"addTrustedIssuer","inputs":[{"name":"trustedIssuer","type":"address","internalType":"contract IClaimIssuer"},{"name":"claimTopics","type":"uint256[]","internalType":"uint256[]"}],"outputs":[],"stateMutability":"nonpayable"},{"type":"function","name":"claimTopicsToTrustedIssuers","inputs":[{"name":"","type":"uint256","internalType":"uint256"},{"name":"","type":"uint256","internalType":"uint256"}],"outputs":[{"name":"","type":"address","internalType":"contract IClaimIssuer"}],"stateMutability":"view"},{"type":"function","name":"doSomething","inputs":[],"outputs":[],"stateMutability":"nonpayable"},{"type":"function","name":"getTrustedIssuerClaimTopics","inputs":[{"name":"trustedIssuer","type":"address","internalType":"contract IClaimIssuer"}],"outputs":[{"name":"","type":"uint256[]","internalType":"uint256[]"}],"stateMutability":"view"},{"type":"function","name":"getTrustedIssuers","inputs":[],"outputs":[{"name":"","type":"address[]","internalType":"contract IClaimIssuer[]"}],"stateMutability":"view"},{"type":"function","name":"getTrustedIssuersForClaimTopic","inputs":[{"name":"claimTopic","type":"uint256","internalType":"uint256"}],"outputs":[{"name":"","type":"address[]","internalType":"contract IClaimIssuer[]"}],"stateMutability":"view"},{"type":"function","name":"hasClaimTopic","inputs":[{"name":"issuer","type":"address","internalType":"address"},{"name":"claimTopic","type":"uint256","internalType":"uint256"}],"outputs":[{"name":"","type":"bool","internalType":"bool"}],"stateMutability":"view"},{"type":"function","name":"isClaimTopicRequired","inputs":[{"name":"claimTopic","type":"uint256","internalType":"uint256"}],"outputs":[{"name":"","type":"bool","internalType":"bool"}],"stateMutability":"view"},{"type":"function","name":"isTrustedIssuer","inputs":[{"name":"issuer","type":"address","internalType":"address"}],"outputs":[{"name":"","type":"bool","internalType":"bool"}],"stateMutability":"view"},{"type":"function","name":"owner","inputs":[],"outputs":[{"name":"","type":"address","internalType":"address"}],"stateMutability":"view"},{"type":"function","name":"removeClaimTopic","inputs":[{"name":"claimTopic","type":"uint256","internalType":"uint256"}],"outputs":[],"stateMutability":"nonpayable"},{"type":"function","name":"removeTrustedIssuer","inputs":[{"name":"trustedIssuer","type":"address","internalType":"contract IClaimIssuer"}],"outputs":[],"stateMutability":"nonpayable"},{"type":"function","name":"renounceOwnership","inputs":[],"outputs":[],"stateMutability":"nonpayable"},{"type":"function","name":"requiredClaimTopics","inputs":[{"name":"","type":"uint256","internalType":"uint256"}],"outputs":[{"name":"","type":"uint256","internalType":"uint256"}],"stateMutability":"view"},{"type":"function","name":"transferOwnership","inputs":[{"name":"newOwner","type":"address","internalType":"address"}],"outputs":[],"stateMutability":"nonpayable"},{"type":"function","name":"trustedIssuerClaimTopics","inputs":[{"name":"","type":"address","internalType":"address"},{"name":"","type":"uint256","internalType":"uint256"}],"outputs":[{"name":"","type":"uint256","internalType":"uint256"}],"stateMutability":"view"},{"type":"function","name":"trustedIssuers","inputs":[{"name":"","type":"uint256","internalType":"uint256"}],"outputs":[{"name":"","type":"address","internalType":"contract IClaimIssuer"}],"stateMutability":"view"},{"type":"function","name":"updateIssuerClaimTopics","inputs":[{"name":"trustedIssuer","type":"address","internalType":"contract IClaimIssuer"},{"name":"newClaimTopics","type":"uint256[]","internalType":"uint256[]"}],"outputs":[],"stateMutability":"nonpayable"},{"type":"function","name":"verify","inputs":[{"name":"identity","type":"address","internalType":"address"}],"outputs":[{"name":"isVerified","type":"bool","internalType":"bool"}],"stateMutability":"view"},{"type":"event","name":"ClaimTopicAdded","inputs":[{"name":"claimTopic","type":"uint256","indexed":true,"internalType":"uint256"}],"anonymous":false},{"type":"event","name":"ClaimTopicRemoved","inputs":[{"name":"claimTopic","type":"uint256","indexed":true,"internalType":"uint256"}],"anonymous":false},{"type":"event","name":"ClaimTopicsUpdated","inputs":[{"name":"trustedIssuer","type":"address","indexed":true,"internalType":"contract IClaimIssuer"},{"name":"claimTopics","type":"uint256[]","indexed":false,"internalType":"uint256[]"}],"anonymous":false},{"type":"event","name":"OwnershipTransferred","inputs":[{"name":"previousOwner","type":"address","indexed":true,"internalType":"address"},{"name":"newOwner","type":"address","indexed":true,"internalType":"address"}],"anonymous":false},{"type":"event","name":"TrustedIssuerAdded","inputs":[{"name":"trustedIssuer","type":"address","indexed":true,"internalType":"contract IClaimIssuer"},{"name":"claimTopics","type":"uint256[]","indexed":false,"internalType":"uint256[]"}],"anonymous":false},{"type":"event","name":"TrustedIssuerRemoved","inputs":[{"name":"trustedIssuer","type":"address","indexed":true,"internalType":"contract IClaimIssuer"}],"anonymous":false},{"type":"error","name":"OwnableInvalidOwner","inputs":[{"name":"owner","type":"address","internalType":"address"}]},{"type":"error","name":"OwnableUnauthorizedAccount","inputs":[{"name":"account","type":"address","internalType":"address"}]}],"bytecode":{"object":"0x6080604052348015600f57600080fd5b503380603557604051631e4fbdf760e01b81526000600482015260240160405180910390fd5b603c816041565b506091565b600080546001600160a01b038381166001600160a01b0319831681178455604051919092169283917f8be0079c531659141344cd1fd0a4f28419497f9722a3daafe3b4186f6b6457e09190a35050565b611d70806100a06000396000f3fe608060405234801561001057600080fd5b506004361061012c5760003560e01c8063b5fa8693116100ad578063c7b2255111610071578063c7b2255114610289578063c801dd401461029c578063d9dd24c5146102af578063ef2ed1a4146102b7578063f2fde38b146102ca57600080fd5b8063b5fa86931461020f578063b93d28eb14610230578063ba64c34114610243578063be36359f14610256578063c28fb2781461026957600080fd5b8063715018a6116100f4578063715018a6146101b457806382692679146101bc5780638da5cb5b146101c457806393e9f801146101e95780639f63ea98146101fc57600080fd5b806304bc7e8414610131578063082978461461014657806334a899871461015957806352c111d11461018157806363a9c3d7146101a1575b600080fd5b61014461013f366004611791565b6102dd565b005b61014461015436600461181b565b61065c565b61016c610167366004611834565b610742565b60405190151581526020015b60405180910390f35b61019461018f36600461181b565b6107f7565b6040516101789190611860565b61016c6101af3660046118ac565b610863565b610144610c39565b610144610c4d565b6000546001600160a01b03165b6040516001600160a01b039091168152602001610178565b6101d16101f73660046118d0565b610c9b565b61014461020a366004611791565b610cd3565b61022261021d36600461181b565b610f52565b604051908152602001610178565b61014461023e3660046118ac565b610f73565b610222610251366004611834565b6112f5565b61016c61026436600461181b565b611326565b61027c6102773660046118ac565b611376565b60405161017891906118f2565b61014461029736600461181b565b611448565b6101d16102aa36600461181b565b61158d565b6101946115b7565b61016c6102c53660046118ac565b611619565b6101446102d83660046118ac565b611647565b6102e5611685565b6001600160a01b0383166103145760405162461bcd60e51b815260040161030b9061192a565b60405180910390fd5b6001600160a01b03831660009081526003602052604081205490036103725760405162461bcd60e51b81526020600482015260146024820152732727aa1030903a393ab9ba32b21034b9b9bab2b960611b604482015260640161030b565b600f8111156103935760405162461bcd60e51b815260040161030b90611961565b806103e05760405162461bcd60e51b815260206004820152601c60248201527f636c61696d20746f706963732063616e6e6f7420626520656d70747900000000604482015260640161030b565b60005b6001600160a01b03841660009081526003602052604090205481101561057f576001600160a01b038416600090815260036020526040812080548390811061042d5761042d6119a6565b600091825260208083209091015480835260049091526040822054909250905b8181101561057457600083815260046020526040902080546001600160a01b038916919083908110610481576104816119a6565b6000918252602090912001546001600160a01b03160361056c5760008381526004602052604090206104b46001846119d2565b815481106104c4576104c46119a6565b60009182526020808320909101548583526004909152604090912080546001600160a01b0390921691839081106104fd576104fd6119a6565b600091825260208083209190910180546001600160a01b0319166001600160a01b039490941693909317909255848152600490915260409020805480610545576105456119e5565b600082815260209020810160001990810180546001600160a01b0319169055019055610574565b60010161044d565b5050506001016103e3565b506001600160a01b03831660009081526003602052604090206105a3908383611702565b5060005b8181101561061357600460008484848181106105c5576105c56119a6565b602090810292909201358352508181019290925260400160009081208054600180820183559183529290912090910180546001600160a01b0319166001600160a01b038716179055016105a7565b50826001600160a01b03167fec753cfc52044f61676f18a11e500093a9f2b1cd5e4942bc476f2b0438159bcf838360405161064f9291906119fb565b60405180910390a2505050565b610664611685565b60015460005b8181101561073d578260018281548110610686576106866119a6565b9060005260206000200154036107355760016106a281846119d2565b815481106106b2576106b26119a6565b9060005260206000200154600182815481106106d0576106d06119a6565b60009182526020909120015560018054806106ed576106ed6119e5565b60019003818190600052602060002001600090559055827f0b1381093c776453c1bbe54fd68be1b235c65db61d099cb50d194b2991e0eec560405160405180910390a2505050565b60010161066a565b505050565b6001600160a01b03821660009081526003602090815260408083208054825181850281018501909352808352849383018282801561079f57602002820191906000526020600020905b81548152602001906001019080831161078b575b505083519394506000925050505b818110156107e957848382815181106107c8576107c86119a6565b6020026020010151036107e157600193505050506107f1565b6001016107ad565b506000925050505b92915050565b60008181526004602090815260409182902080548351818402810184019094528084526060939283018282801561085757602002820191906000526020600020905b81546001600160a01b03168152600190910190602001808311610839575b50505050509050919050565b600154600090810361087757506001919050565b600080600060608060005b600154811015610c2b576000306001600160a01b03166352c111d1600184815481106108b0576108b06119a6565b90600052602060002001546040518263ffffffff1660e01b81526004016108d991815260200190565b600060405180830381865afa1580156108f6573d6000803e3d6000fd5b505050506040513d6000823e601f3d908101601f1916820160405261091e9190810190611a7b565b905080516000036109385750600098975050505050505050565b6000815167ffffffffffffffff81111561095457610954611a34565b60405190808252806020026020018201604052801561097d578160200160208202803683370190505b50905060005b8251811015610a245782818151811061099e5761099e6119a6565b6020026020010151600185815481106109b9576109b96119a6565b90600052602060002001546040516020016109e99291906001600160a01b03929092168252602082015260400190565b60405160208183030381529060405280519060200120828281518110610a1157610a116119a6565b6020908102919091010152600101610983565b5060005b8151811015610c20578a6001600160a01b031663c9100bcb838381518110610a5257610a526119a6565b60200260200101516040518263ffffffff1660e01b8152600401610a7891815260200190565b600060405180830381865afa158015610a95573d6000803e3d6000fd5b505050506040513d6000823e601f3d908101601f19168201604052610abd9190810190611bcb565b5060018054959e50939c50919a50985096509085908110610ae057610ae06119a6565b90600052602060002001548903610be957866001600160a01b031663c0969a6e8c60018781548110610b1457610b146119a6565b906000526020600020015489896040518563ffffffff1660e01b8152600401610b409493929190611cc6565b602060405180830381865afa925050508015610b79575060408051601f3d908101601f19168201909252610b7691810190611cff565b60015b610ba75760018251610b8b91906119d2565b8103610ba2575060009a9950505050505050505050565b610c0e565b8015610bb257825191505b80158015610bcc575060018351610bc991906119d2565b82145b15610be3575060009b9a5050505050505050505050565b50610c0e565b60018251610bf791906119d2565b8103610c0e575060009a9950505050505050505050565b80610c1881611d21565b915050610a28565b505050600101610882565b506001979650505050505050565b610c41611685565b610c4b60006116b2565b565b610c5633610863565b610c4b5760405162461bcd60e51b81526020600482015260166024820152751cd95b99195c881a5cc81b9bdd081d995c9a599a595960521b604482015260640161030b565b60046020528160005260406000208181548110610cb757600080fd5b6000918252602090912001546001600160a01b03169150829050565b610cdb611685565b6001600160a01b038316610d015760405162461bcd60e51b815260040161030b9061192a565b6001600160a01b03831660009081526003602052604090205415610d675760405162461bcd60e51b815260206004820152601d60248201527f747275737465642049737375657220616c726561647920657869737473000000604482015260640161030b565b80610dc05760405162461bcd60e51b8152602060048201526024808201527f7472757374656420636c61696d20746f706963732063616e6e6f7420626520656044820152636d70747960e01b606482015260840161030b565b600f811115610de15760405162461bcd60e51b815260040161030b90611961565b600254603211610e445760405162461bcd60e51b815260206004820152602860248201527f63616e6e6f742068617665206d6f7265207468616e2035302074727573746564604482015267206973737565727360c01b606482015260840161030b565b60028054600181019091557f405787fa12a823e0f2b7631cc41b3ba8828b3321ca811111fa75cd3aa3bb5ace0180546001600160a01b0319166001600160a01b0385169081179091556000908152600360205260409020610ea6908383611702565b5060005b81811015610f165760046000848484818110610ec857610ec86119a6565b602090810292909201358352508181019290925260400160009081208054600180820183559183529290912090910180546001600160a01b0319166001600160a01b03871617905501610eaa565b50826001600160a01b03167ffedc33fd34859594822c0ff6f3f4f9fc279cc6d5cae53068f706a088e4500872838360405161064f9291906119fb565b60018181548110610f6257600080fd5b600091825260209091200154905081565b610f7b611685565b6001600160a01b038116610fa15760405162461bcd60e51b815260040161030b9061192a565b6001600160a01b0381166000908152600360205260408120549003610fff5760405162461bcd60e51b81526020600482015260146024820152732727aa1030903a393ab9ba32b21034b9b9bab2b960611b604482015260640161030b565b60025460005b818110156110fb57826001600160a01b03166002828154811061102a5761102a6119a6565b6000918252602090912001546001600160a01b0316036110f35760026110516001846119d2565b81548110611061576110616119a6565b600091825260209091200154600280546001600160a01b03909216918390811061108d5761108d6119a6565b9060005260206000200160006101000a8154816001600160a01b0302191690836001600160a01b0316021790555060028054806110cc576110cc6119e5565b600082815260209020810160001990810180546001600160a01b03191690550190556110fb565b600101611005565b5060005b6001600160a01b03831660009081526003602052604090205481101561129b576001600160a01b0383166000908152600360205260408120805483908110611149576111496119a6565b600091825260208083209091015480835260049091526040822054909250905b8181101561129057600083815260046020526040902080546001600160a01b03881691908390811061119d5761119d6119a6565b6000918252602090912001546001600160a01b0316036112885760008381526004602052604090206111d06001846119d2565b815481106111e0576111e06119a6565b60009182526020808320909101548583526004909152604090912080546001600160a01b039092169183908110611219576112196119a6565b600091825260208083209190910180546001600160a01b0319166001600160a01b039490941693909317909255848152600490915260409020805480611261576112616119e5565b600082815260209020810160001990810180546001600160a01b0319169055019055611290565b600101611169565b5050506001016110ff565b506001600160a01b03821660009081526003602052604081206112bd9161174d565b6040516001600160a01b038316907f2214ded40113cc3fb63fc206cafee88270b0a903dac7245d54efdde30ebb032190600090a25050565b6003602052816000526040600020818154811061131157600080fd5b90600052602060002001600091509150505481565b600154600090815b8181101561136c57836001828154811061134a5761134a6119a6565b906000526020600020015403611364575060019392505050565b60010161132e565b5060009392505050565b6001600160a01b038116600090815260036020526040812054606091036113df5760405162461bcd60e51b815260206004820152601c60248201527f747275737465642049737375657220646f65736e277420657869737400000000604482015260640161030b565b6001600160a01b0382166000908152600360209081526040918290208054835181840281018401909452808452909183018282801561085757602002820191906000526020600020905b8154815260200190600101908083116114295750505050509050919050565b611450611685565b600154600f81106114ae5760405162461bcd60e51b815260206004820152602260248201527f63616e6e6f742072657175697265206d6f7265207468616e20313520746f7069604482015261637360f01b606482015260840161030b565b60005b8181101561152d5782600182815481106114cd576114cd6119a6565b9060005260206000200154036115255760405162461bcd60e51b815260206004820152601960248201527f636c61696d546f70696320616c72656164792065786973747300000000000000604482015260640161030b565b6001016114b1565b5060018054808201825560009182527fb10e2d527612073b26eecdfd717e6a320cf44b4afac2b0732d9fcbe2b7fa0cf60183905560405183917f01c928b7f7ade2949e92366aa9454dbef3a416b731cf6ec786ba9595bbd814d691a25050565b6002818154811061159d57600080fd5b6000918252602090912001546001600160a01b0316905081565b6060600280548060200260200160405190810160405280929190818152602001828054801561160f57602002820191906000526020600020905b81546001600160a01b031681526001909101906020018083116115f1575b5050505050905090565b6001600160a01b0381166000908152600360205260408120541561163f57506001919050565b506000919050565b61164f611685565b6001600160a01b03811661167957604051631e4fbdf760e01b81526000600482015260240161030b565b611682816116b2565b50565b6000546001600160a01b03163314610c4b5760405163118cdaa760e01b815233600482015260240161030b565b600080546001600160a01b038381166001600160a01b0319831681178455604051919092169283917f8be0079c531659141344cd1fd0a4f28419497f9722a3daafe3b4186f6b6457e09190a35050565b82805482825590600052602060002090810192821561173d579160200282015b8281111561173d578235825591602001919060010190611722565b50611749929150611767565b5090565b508054600082559060005260206000209081019061168291905b5b808211156117495760008155600101611768565b6001600160a01b038116811461168257600080fd5b6000806000604084860312156117a657600080fd5b83356117b18161177c565b9250602084013567ffffffffffffffff8111156117cd57600080fd5b8401601f810186136117de57600080fd5b803567ffffffffffffffff8111156117f557600080fd5b8660208260051b840101111561180a57600080fd5b939660209190910195509293505050565b60006020828403121561182d57600080fd5b5035919050565b6000806040838503121561184757600080fd5b82356118528161177c565b946020939093013593505050565b602080825282518282018190526000918401906040840190835b818110156118a15783516001600160a01b031683526020938401939092019160010161187a565b509095945050505050565b6000602082840312156118be57600080fd5b81356118c98161177c565b9392505050565b600080604083850312156118e357600080fd5b50508035926020909101359150565b602080825282518282018190526000918401906040840190835b818110156118a157835183526020938401939092019160010161190c565b6020808252601f908201527f696e76616c696420617267756d656e74202d207a65726f206164647265737300604082015260600190565b60208082526025908201527f63616e6e6f742068617665206d6f7265207468616e20313520636c61696d20746040820152646f7069637360d81b606082015260800190565b634e487b7160e01b600052603260045260246000fd5b634e487b7160e01b600052601160045260246000fd5b818103818111156107f1576107f16119bc565b634e487b7160e01b600052603160045260246000fd5b6020808252810182905260006001600160fb1b03831115611a1b57600080fd5b8260051b80856040850137919091016040019392505050565b634e487b7160e01b600052604160045260246000fd5b604051601f8201601f1916810167ffffffffffffffff81118282101715611a7357611a73611a34565b604052919050565b600060208284031215611a8d57600080fd5b815167ffffffffffffffff811115611aa457600080fd5b8201601f81018413611ab557600080fd5b805167ffffffffffffffff811115611acf57611acf611a34565b8060051b611adf60208201611a4a565b91825260208184018101929081019087841115611afb57600080fd5b6020850194505b83851015611b295784519250611b178361177c565b82825260209485019490910190611b02565b979650505050505050565b60005b83811015611b4f578181015183820152602001611b37565b50506000910152565b60008067ffffffffffffffff841115611b7357611b73611a34565b50601f8301601f1916602001611b8881611a4a565b915050828152838383011115611b9d57600080fd5b6118c9836020830184611b34565b600082601f830112611bbc57600080fd5b6118c983835160208501611b58565b60008060008060008060c08789031215611be457600080fd5b8651602088015160408901519197509550611bfe8161177c565b606088015190945067ffffffffffffffff811115611c1b57600080fd5b611c2789828a01611bab565b935050608087015167ffffffffffffffff811115611c4457600080fd5b611c5089828a01611bab565b92505060a087015167ffffffffffffffff811115611c6d57600080fd5b8701601f81018913611c7e57600080fd5b611c8d89825160208401611b58565b9150509295509295509295565b60008151808452611cb2816020860160208601611b34565b601f01601f19169290920160200192915050565b60018060a01b0385168152836020820152608060408201526000611ced6080830185611c9a565b8281036060840152611b298185611c9a565b600060208284031215611d1157600080fd5b815180151581146118c957600080fd5b600060018201611d3357611d336119bc565b506001019056fea26469706673582212209dadf9eb55ca05016c90a4e7774252d0333e3b9dfa01329ea789c931749ae44c64736f6c634300081c0033","linkReferences":{}},"methodIdentifiers":{"addClaimTopic(uint256)":"c7b22551","addTrustedIssuer(address,uint256[])":"9f63ea98","claimTopicsToTrustedIssuers(uint256,uint256)":"93e9f801","doSomething()":"82692679","getTrustedIssuerClaimTopics(address)":"c28fb278","getTrustedIssuers()":"d9dd24c5","getTrustedIssuersForClaimTopic(uint256)":"52c111d1","hasClaimTopic(address,uint256)":"34a89987","isClaimTopicRequired(uint256)":"be36359f","isTrustedIssuer(address)":"ef2ed1a4","owner()":"8da5cb5b","removeClaimTopic(uint256)":"08297846","removeTrustedIssuer(address)":"b93d28eb","renounceOwnership()":"715018a6","requiredClaimTopics(uint256)":"b5fa8693","transferOwnership(address)":"f2fde38b","trustedIssuerClaimTopics(address,uint256)":"ba64c341","trustedIssuers(uint256)":"c801dd40","updateIssuerClaimTopics(address,uint256[])":"04bc7e84","verify(address)":"63a9c3d7"},"id":3}