{"abi":[{"type":"constructor","inputs":[{"name":"idFactoryAddress","type":"address","internalType":"address"},{"name":"signersToApprove","type":"address[]","internalType":"address[]"}],"stateMutability":"nonpayable"},{"type":"function","name":"approveSignature","inputs":[{"name":"signature","type":"bytes","internalType":"bytes"}],"outputs":[],"stateMutability":"nonpayable"},{"type":"function","name":"approveSigner","inputs":[{"name":"signer","type":"address","internalType":"address"}],"outputs":[],"stateMutability":"nonpayable"},{"type":"function","name":"approvedSigners","inputs":[{"name":"","type":"address","internalType":"address"}],"outputs":[{"name":"","type":"bool","internalType":"bool"}],"stateMutability":"view"},{"type":"function","name":"callFactory","inputs":[{"name":"data","type":"bytes","internalType":"bytes"}],"outputs":[],"stateMutability":"nonpayable"},{"type":"function","name":"deployIdentityForWallet","inputs":[{"name":"identityOwner","type":"address","internalType":"address"}],"outputs":[{"name":"","type":"address","internalType":"address"}],"stateMutability":"nonpayable"},{"type":"function","name":"deployIdentityWithSalt","inputs":[{"name":"identityOwner","type":"address","internalType":"address"},{"name":"salt","type":"string","internalType":"string"},{"name":"signatureExpiry","type":"uint256","internalType":"uint256"},{"name":"signature","type":"bytes","internalType":"bytes"}],"outputs":[{"name":"","type":"address","internalType":"address"}],"stateMutability":"nonpayable"},{"type":"function","name":"deployIdentityWithSaltAndManagementKeys","inputs":[{"name":"identityOwner","type":"address","internalType":"address"},{"name":"salt","type":"string","internalType":"string"},{"name":"managementKeys","type":"bytes32[]","internalType":"bytes32[]"},{"name":"signatureExpiry","type":"uint256","internalType":"uint256"},{"name":"signature","type":"bytes","internalType":"bytes"}],"outputs":[{"name":"","type":"address","internalType":"address"}],"stateMutability":"nonpayable"},{"type":"function","name":"idFactory","inputs":[],"outputs":[{"name":"","type":"address","internalType":"contract IdFactory"}],"stateMutability":"view"},{"type":"function","name":"owner","inputs":[],"outputs":[{"name":"","type":"address","internalType":"address"}],"stateMutability":"view"},{"type":"function","name":"renounceOwnership","inputs":[],"outputs":[],"stateMutability":"nonpayable"},{"type":"function","name":"revokeSignature","inputs":[{"name":"signature","type":"bytes","internalType":"bytes"}],"outputs":[],"stateMutability":"nonpayable"},{"type":"function","name":"revokeSigner","inputs":[{"name":"signer","type":"address","internalType":"address"}],"outputs":[],"stateMutability":"nonpayable"},{"type":"function","name":"revokedSignatures","inputs":[{"name":"","type":"bytes","internalType":"bytes"}],"outputs":[{"name":"","type":"bool","internalType":"bool"}],"stateMutability":"view"},{"type":"function","name":"transferFactoryOwnership","inputs":[{"name":"newOwner","type":"address","internalType":"address"}],"outputs":[],"stateMutability":"nonpayable"},{"type":"function","name":"transferOwnership","inputs":[{"name":"newOwner","type":"address","internalType":"address"}],"outputs":[],"stateMutability":"nonpayable"},{"type":"event","name":"OwnershipTransferred","inputs":[{"name":"previousOwner","type":"address","indexed":true,"internalType":"address"},{"name":"newOwner","type":"address","indexed":true,"internalType":"address"}],"anonymous":false},{"type":"event","name":"SignatureApproved","inputs":[{"name":"signature","type":"bytes","indexed":true,"internalType":"bytes"}],"anonymous":false},{"type":"event","name":"SignatureRevoked","inputs":[{"name":"signature","type":"bytes","indexed":true,"internalType":"bytes"}],"anonymous":false},{"type":"event","name":"SignerApproved","inputs":[{"name":"signer","type":"address","indexed":true,"internalType":"address"}],"anonymous":false},{"type":"event","name":"SignerRevoked","inputs":[{"name":"signer","type":"address","indexed":true,"internalType":"address"}],"anonymous":false},{"type":"error","name":"ECDSAInvalidSignature","inputs":[]},{"type":"error","name":"ECDSAInvalidSignatureLength","inputs":[{"name":"length","type":"uint256","internalType":"uint256"}]},{"type":"error","name":"ECDSAInvalidSignatureS","inputs":[{"name":"s","type":"bytes32","internalType":"bytes32"}]},{"type":"error","name":"ExpiredSignature","inputs":[{"name":"signature","type":"bytes","internalType":"bytes"}]},{"type":"error","name":"OwnableInvalidOwner","inputs":[{"name":"owner","type":"address","internalType":"address"}]},{"type":"error","name":"OwnableUnauthorizedAccount","inputs":[{"name":"account","type":"address","internalType":"address"}]},{"type":"error","name":"RevokedSignature","inputs":[{"name":"signature","type":"bytes","internalType":"bytes"}]},{"type":"error","name":"SignatureAlreadyRevoked","inputs":[{"name":"signature","type":"bytes","internalType":"bytes"}]},{"type":"error","name":"SignatureNotRevoked","inputs":[{"name":"signature","type":"bytes","internalType":"bytes"}]},{"type":"error","name":"SignerAlreadyApproved","inputs":[{"name":"signer","type":"address","internalType":"address"}]},{"type":"error","name":"SignerAlreadyNotApproved","inputs":[{"name":"signer","type":"address","internalType":"address"}]},{"type":"error","name":"StringsInsufficientHexLength","inputs":[{"name":"value","type":"uint256","internalType":"uint256"},{"name":"length","type":"uint256","internalType":"uint256"}]},{"type":"error","name":"TooManySigners","inputs":[]},{"type":"error","name":"UnapprovedSigner","inputs":[{"name":"signer","type":"address","internalType":"address"}]},{"type":"error","name":"ZeroAddress","inputs":[]}],"bytecode":{"object":"0x608060405234801561001057600080fd5b5060405161182438038061182483398101604081905261002f916101b0565b338061005557604051631e4fbdf760e01b81526000600482015260240160405180910390fd5b61005e8161012e565b506001600160a01b0382166100865760405163d92e233d60e01b815260040160405180910390fd5b600a815111156100a957604051630dc92ed360e11b815260040160405180910390fd5b60005b8151811015610107576001600260008484815181106100cd576100cd610293565b6020908102919091018101516001600160a01b03168252810191909152604001600020805460ff19169115159190911790556001016100ac565b5050600180546001600160a01b0319166001600160a01b03929092169190911790556102a9565b600080546001600160a01b038381166001600160a01b0319831681178455604051919092169283917f8be0079c531659141344cd1fd0a4f28419497f9722a3daafe3b4186f6b6457e09190a35050565b80516001600160a01b038116811461019557600080fd5b919050565b634e487b7160e01b600052604160045260246000fd5b600080604083850312156101c357600080fd5b6101cc8361017e565b60208401519092506001600160401b038111156101e857600080fd5b8301601f810185136101f957600080fd5b80516001600160401b038111156102125761021261019a565b604051600582901b90603f8201601f191681016001600160401b03811182821017156102405761024061019a565b60405291825260208184018101929081018884111561025e57600080fd5b6020850194505b83851015610284576102768561017e565b815260209485019401610265565b50809450505050509250929050565b634e487b7160e01b600052603260045260246000fd5b61156c806102b86000396000f3fe608060405234801561001057600080fd5b50600436106100f55760003560e01c80638a87551211610097578063ccbfc6ed11610066578063ccbfc6ed14610218578063d70aa0ee1461022b578063e9ba23631461023e578063f2fde38b1461025157600080fd5b80638a875512146101be5780638da5cb5b146101e15780639c5c5ce7146101f2578063c34b44a01461020557600080fd5b80634e2984e4116100d35780634e2984e414610152578063715018a61461019057806378e751a6146101985780637d963e6f146101ab57600080fd5b806309f29c09146100fa57806317f67a151461010f5780633e8e6e8b1461013f575b600080fd5b61010d610108366004610fbe565b610264565b005b61012261011d36600461108c565b610326565b6040516001600160a01b0390911681526020015b60405180910390f35b61012261014d366004611118565b61052f565b610180610160366004610fbe565b805160208183018101805160038252928201919093012091525460ff1681565b6040519015158152602001610136565b61010d6105d9565b600154610122906001600160a01b031681565b61010d6101b9366004611135565b6105ed565b6101806101cc366004611118565b60026020526000908152604090205460ff1681565b6000546001600160a01b0316610122565b61010d610200366004611118565b6106a5565b61010d610213366004611118565b61070f565b61010d610226366004611135565b6107cb565b61010d610239366004611118565b610890565b61012261024c366004611177565b610950565b61010d61025f366004611118565b610ade565b61026c610b1c565b6001546040516000916001600160a01b03169061028a90849061128d565b6000604051808303816000865af19150503d80600081146102c7576040519150601f19603f3d011682016040523d82523d6000602084013e6102cc565b606091505b50509050806103225760405162461bcd60e51b815260206004820152601f60248201527f476174657761793a2063616c6c20746f20666163746f7279206661696c65640060448201526064015b60405180910390fd5b5050565b60006001600160a01b03861661034f5760405163d92e233d60e01b815260040160405180910390fd5b831580159061035d57504284105b1561037f57828260405163019fcfdb60e31b81526004016103199291906112a9565b60006104216103e588888860405160200161039c93929190611304565b604051602081830303815290604052805190602001207f19457468657265756d205369676e6564204d6573736167653a0a3332000000006000908152601c91909152603c902090565b85858080601f016020809104026020016040519081016040528093929190818152602001838380828437600092019190915250610b4992505050565b6001600160a01b03811660009081526002602052604090205490915060ff166104685760405163579e40b960e11b81526001600160a01b0382166004820152602401610319565b6003848460405161047a929190611373565b9081526040519081900360200190205460ff16156104af5783836040516314dbff3f60e31b81526004016103199291906112a9565b60015460405163474a95ff60e11b81526001600160a01b0390911690638e952bfe906104e1908a908a90600401611383565b6020604051808303816000875af1158015610500573d6000803e3d6000fd5b505050506040513d601f19601f8201168201806040525081019061052491906113a7565b979650505050505050565b60006001600160a01b0382166105585760405163d92e233d60e01b815260040160405180910390fd5b6001546001600160a01b0316638e952bfe8361057381610b73565b6040518363ffffffff1660e01b8152600401610590929190611383565b6020604051808303816000875af11580156105af573d6000803e3d6000fd5b505050506040513d601f19601f820116820180604052508101906105d391906113a7565b92915050565b6105e1610b1c565b6105eb6000610b89565b565b6105f5610b1c565b60038282604051610607929190611373565b9081526040519081900360200190205460ff1661063b5781816040516337d70afd60e11b81526004016103199291906112a9565b6003828260405161064d929190611373565b908152604051908190036020018120805460ff191690556106719083908390611373565b604051908190038120907fb54b0481f674d73e0a7e0805771909ebd61fadc85286160239121febb142fabf90600090a25050565b6106ad610b1c565b60015460405163f2fde38b60e01b81526001600160a01b0383811660048301529091169063f2fde38b90602401600060405180830381600087803b1580156106f457600080fd5b505af1158015610708573d6000803e3d6000fd5b5050505050565b610717610b1c565b6001600160a01b03811661073e5760405163d92e233d60e01b815260040160405180910390fd5b6001600160a01b03811660009081526002602052604090205460ff16610782576040516309d0bb2d60e21b81526001600160a01b0382166004820152602401610319565b6001600160a01b038116600081815260026020526040808220805460ff19169055517f99a705a3c2c3339d0051f56b36a60fef91e30142c93353002617999f27aec4af9190a250565b6107d3610b1c565b600382826040516107e5929190611373565b9081526040519081900360200190205460ff161561081a578181604051638bf3b1f160e01b81526004016103199291906112a9565b60016003838360405161082e929190611373565b908152604051908190036020018120805492151560ff199093169290921790915561085c9083908390611373565b604051908190038120907f2cb4d732f179a7333da89a4da3f3f9a9cbe3f6d7ac090ab062c69c303da32ff790600090a25050565b610898610b1c565b6001600160a01b0381166108bf5760405163d92e233d60e01b815260040160405180910390fd5b6001600160a01b03811660009081526002602052604090205460ff161561090457604051630912922160e11b81526001600160a01b0382166004820152602401610319565b6001600160a01b038116600081815260026020526040808220805460ff19166001179055517fc031114b6ddff79d71c2554dbce316b1327bb3dad01c60b76d8e8b23ff27ea289190a250565b60006001600160a01b0388166109795760405163d92e233d60e01b815260040160405180910390fd5b831580159061098757504284105b156109a957828260405163019fcfdb60e31b81526004016103199291906112a9565b60006109ca6103e58a8a8a8a8a60405160200161039c9594939291906113f6565b6001600160a01b03811660009081526002602052604090205490915060ff16610a115760405163579e40b960e11b81526001600160a01b0382166004820152602401610319565b60038484604051610a23929190611373565b9081526040519081900360200190205460ff1615610a585783836040516314dbff3f60e31b81526004016103199291906112a9565b600154604051637f2e6acd60e11b81526001600160a01b039091169063fe5cd59a90610a8e908c908c908c908c9060040161147c565b6020604051808303816000875af1158015610aad573d6000803e3d6000fd5b505050506040513d601f19601f82011682018060405250810190610ad191906113a7565b9998505050505050505050565b610ae6610b1c565b6001600160a01b038116610b1057604051631e4fbdf760e01b815260006004820152602401610319565b610b1981610b89565b50565b6000546001600160a01b031633146105eb5760405163118cdaa760e01b8152336004820152602401610319565b600080600080610b598686610bd9565b925092509250610b698282610c26565b5090949350505050565b60606105d36001600160a01b0383166014610cdf565b600080546001600160a01b038381166001600160a01b0319831681178455604051919092169283917f8be0079c531659141344cd1fd0a4f28419497f9722a3daafe3b4186f6b6457e09190a35050565b60008060008351604103610c135760208401516040850151606086015160001a610c0588828585610e5f565b955095509550505050610c1f565b50508151600091506002905b9250925092565b6000826003811115610c3a57610c3a6114b3565b03610c43575050565b6001826003811115610c5757610c576114b3565b03610c755760405163f645eedf60e01b815260040160405180910390fd5b6002826003811115610c8957610c896114b3565b03610caa5760405163fce698f760e01b815260048101829052602401610319565b6003826003811115610cbe57610cbe6114b3565b03610322576040516335e2f38360e21b815260048101829052602401610319565b6060826000610cef8460026114df565b610cfa9060026114f6565b67ffffffffffffffff811115610d1257610d12610f2e565b6040519080825280601f01601f191660200182016040528015610d3c576020820181803683370190505b509050600360fc1b81600081518110610d5757610d57611509565b60200101906001600160f81b031916908160001a905350600f60fb1b81600181518110610d8657610d86611509565b60200101906001600160f81b031916908160001a9053506000610daa8560026114df565b610db59060016114f6565b90505b6001811115610e2d576f181899199a1a9b1b9c1cb0b131b232b360811b83600f1660108110610de957610de9611509565b1a60f81b828281518110610dff57610dff611509565b60200101906001600160f81b031916908160001a90535060049290921c91610e268161151f565b9050610db8565b508115610e575760405163e22e27eb60e01b81526004810186905260248101859052604401610319565b949350505050565b600080807f7fffffffffffffffffffffffffffffff5d576e7357a4501ddfe92f46681b20a0841115610e9a5750600091506003905082610f24565b604080516000808252602082018084528a905260ff891692820192909252606081018790526080810186905260019060a0016020604051602081039080840390855afa158015610eee573d6000803e3d6000fd5b5050604051601f1901519150506001600160a01b038116610f1a57506000925060019150829050610f24565b9250600091508190505b9450945094915050565b634e487b7160e01b600052604160045260246000fd5b60008067ffffffffffffffff841115610f5f57610f5f610f2e565b50604051601f19601f85018116603f0116810181811067ffffffffffffffff82111715610f8e57610f8e610f2e565b604052838152905080828401851015610fa657600080fd5b83836020830137600060208583010152509392505050565b600060208284031215610fd057600080fd5b813567ffffffffffffffff811115610fe757600080fd5b8201601f81018413610ff857600080fd5b610e5784823560208401610f44565b6001600160a01b0381168114610b1957600080fd5b600082601f83011261102d57600080fd5b61103c83833560208501610f44565b9392505050565b60008083601f84011261105557600080fd5b50813567ffffffffffffffff81111561106d57600080fd5b60208301915083602082850101111561108557600080fd5b9250929050565b6000806000806000608086880312156110a457600080fd5b85356110af81611007565b9450602086013567ffffffffffffffff8111156110cb57600080fd5b6110d78882890161101c565b94505060408601359250606086013567ffffffffffffffff8111156110fb57600080fd5b61110788828901611043565b969995985093965092949392505050565b60006020828403121561112a57600080fd5b813561103c81611007565b6000806020838503121561114857600080fd5b823567ffffffffffffffff81111561115f57600080fd5b61116b85828601611043565b90969095509350505050565b600080600080600080600060a0888a03121561119257600080fd5b873561119d81611007565b9650602088013567ffffffffffffffff8111156111b957600080fd5b6111c58a828b0161101c565b965050604088013567ffffffffffffffff8111156111e257600080fd5b8801601f81018a136111f357600080fd5b803567ffffffffffffffff81111561120a57600080fd5b8a60208260051b840101111561121f57600080fd5b6020919091019550935060608801359250608088013567ffffffffffffffff81111561124a57600080fd5b6112568a828b01611043565b989b979a50959850939692959293505050565b60005b8381101561128457818101518382015260200161126c565b50506000910152565b6000825161129f818460208701611269565b9190910192915050565b60208152816020820152818360408301376000818301604090810191909152601f909201601f19160101919050565b600081518084526112f0816020860160208601611269565b601f01601f19169290920160200192915050565b60808152600061134160808301601e81527f417574686f72697a65204f4e434841494e4944206465706c6f796d656e740000602082015260400190565b6001600160a01b0386166020840152828103604084015261136281866112d8565b915050826060830152949350505050565b8183823760009101908152919050565b6001600160a01b0383168152604060208201819052600090610e57908301846112d8565b6000602082840312156113b957600080fd5b815161103c81611007565b81835260006001600160fb1b038311156113dd57600080fd5b8260051b80836020870137939093016020019392505050565b60a08152600061143360a08301601e81527f417574686f72697a65204f4e434841494e4944206465706c6f796d656e740000602082015260400190565b6001600160a01b0388166020840152828103604084015261145481886112d8565b905082810360608401526114698186886113c4565b9150508260808301529695505050505050565b6001600160a01b03851681526060602082018190526000906114a0908301866112d8565b82810360408401526105248185876113c4565b634e487b7160e01b600052602160045260246000fd5b634e487b7160e01b600052601160045260246000fd5b80820281158282048414176105d3576105d36114c9565b808201808211156105d3576105d36114c9565b634e487b7160e01b600052603260045260246000fd5b60008161152e5761152e6114c9565b50600019019056fea2646970667358221220e2a7d24f5c7732ff0bf2e6ad290b5dbb9dbe420e5256974d323393764021fb9464736f6c634300081c0033","linkReferences":{}},"methodIdentifiers":{"approveSignature(bytes)":"7d963e6f","approveSigner(address)":"d70aa0ee","approvedSigners(address)":"8a875512","callFactory(bytes)":"09f29c09","deployIdentityForWallet(address)":"3e8e6e8b","deployIdentityWithSalt(address,string,uint256,bytes)":"17f67a15","deployIdentityWithSaltAndManagementKeys(address,string,bytes32[],uint256,bytes)":"e9ba2363","idFactory()":"78e751a6","owner()":"8da5cb5b","renounceOwnership()":"715018a6","revokeSignature(bytes)":"ccbfc6ed","revokeSigner(address)":"c34b44a0","revokedSignatures(bytes)":"4e2984e4","transferFactoryOwnership(address)":"9c5c5ce7","transferOwnership(address)":"f2fde38b"},"id":6}