{"abi":[{"type":"constructor","inputs":[{"name":"implementationAuthority","type":"address","internalType":"address"}],"stateMutability":"nonpayable"},{"type":"function","name":"addTokenFactory","inputs":[{"name":"_factory","type":"address","internalType":"address"}],"outputs":[],"stateMutability":"nonpayable"},{"type":"function","name":"createIdentity","inputs":[{"name":"_wallet","type":"address","internalType":"address"},{"name":"_salt","type":"string","internalType":"string"}],"outputs":[{"name":"","type":"address","internalType":"address"}],"stateMutability":"nonpayable"},{"type":"function","name":"createIdentityWithManagementKeys","inputs":[{"name":"_wallet","type":"address","internalType":"address"},{"name":"_salt","type":"string","internalType":"string"},{"name":"_managementKeys","type":"bytes32[]","internalType":"bytes32[]"}],"outputs":[{"name":"","type":"address","internalType":"address"}],"stateMutability":"nonpayable"},{"type":"function","name":"createTokenIdentity","inputs":[{"name":"_token","type":"address","internalType":"address"},{"name":"_tokenOwner","type":"address","internalType":"address"},{"name":"_salt","type":"string","internalType":"string"}],"outputs":[{"name":"","type":"address","internalType":"address"}],"stateMutability":"nonpayable"},{"type":"function","name":"getIdentity","inputs":[{"name":"_wallet","type":"address","internalType":"address"}],"outputs":[{"name":"","type":"address","internalType":"address"}],"stateMutability":"view"},{"type":"function","name":"getToken","inputs":[{"name":"_identity","type":"address","internalType":"address"}],"outputs":[{"name":"","type":"address","internalType":"address"}],"stateMutability":"view"},{"type":"function","name":"getWallets","inputs":[{"name":"_identity","type":"address","internalType":"address"}],"outputs":[{"name":"","type":"address[]","internalType":"address[]"}],"stateMutability":"view"},{"type":"function","name":"implementationAuthority","inputs":[],"outputs":[{"name":"","type":"address","internalType":"address"}],"stateMutability":"view"},{"type":"function","name":"isSaltTaken","inputs":[{"name":"_salt","type":"string","internalType":"string"}],"outputs":[{"name":"","type":"bool","internalType":"bool"}],"stateMutability":"view"},{"type":"function","name":"isTokenFactory","inputs":[{"name":"_factory","type":"address","internalType":"address"}],"outputs":[{"name":"","type":"bool","internalType":"bool"}],"stateMutability":"view"},{"type":"function","name":"linkWallet","inputs":[{"name":"_newWallet","type":"address","internalType":"address"}],"outputs":[],"stateMutability":"nonpayable"},{"type":"function","name":"owner","inputs":[],"outputs":[{"name":"","type":"address","internalType":"address"}],"stateMutability":"view"},{"type":"function","name":"removeTokenFactory","inputs":[{"name":"_factory","type":"address","internalType":"address"}],"outputs":[],"stateMutability":"nonpayable"},{"type":"function","name":"renounceOwnership","inputs":[],"outputs":[],"stateMutability":"nonpayable"},{"type":"function","name":"transferOwnership","inputs":[{"name":"newOwner","type":"address","internalType":"address"}],"outputs":[],"stateMutability":"nonpayable"},{"type":"function","name":"unlinkWallet","inputs":[{"name":"_oldWallet","type":"address","internalType":"address"}],"outputs":[],"stateMutability":"nonpayable"},{"type":"event","name":"Deployed","inputs":[{"name":"_addr","type":"address","indexed":true,"internalType":"address"}],"anonymous":false},{"type":"event","name":"OwnershipTransferred","inputs":[{"name":"previousOwner","type":"address","indexed":true,"internalType":"address"},{"name":"newOwner","type":"address","indexed":true,"internalType":"address"}],"anonymous":false},{"type":"event","name":"TokenFactoryAdded","inputs":[{"name":"factory","type":"address","indexed":true,"internalType":"address"}],"anonymous":false},{"type":"event","name":"TokenFactoryRemoved","inputs":[{"name":"factory","type":"address","indexed":true,"internalType":"address"}],"anonymous":false},{"type":"event","name":"TokenLinked","inputs":[{"name":"token","type":"address","indexed":true,"internalType":"address"},{"name":"identity","type":"address","indexed":true,"internalType":"address"}],"anonymous":false},{"type":"event","name":"WalletLinked","inputs":[{"name":"wallet","type":"address","indexed":true,"internalType":"address"},{"name":"identity","type":"address","indexed":true,"internalType":"address"}],"anonymous":false},{"type":"event","name":"WalletUnlinked","inputs":[{"name":"wallet","type":"address","indexed":true,"internalType":"address"},{"name":"identity","type":"address","indexed":true,"internalType":"address"}],"anonymous":false},{"type":"error","name":"OwnableInvalidOwner","inputs":[{"name":"owner","type":"address","internalType":"address"}]},{"type":"error","name":"OwnableUnauthorizedAccount","inputs":[{"name":"account","type":"address","internalType":"address"}]}],"bytecode":{"object":"0x60a060405234801561001057600080fd5b506040516121cf3803806121cf83398101604081905261002f91610117565b338061005657604051631e4fbdf760e01b8152600060048201526024015b60405180910390fd5b61005f816100c7565b506001600160a01b0381166100b65760405162461bcd60e51b815260206004820152601f60248201527f696e76616c696420617267756d656e74202d207a65726f206164647265737300604482015260640161004d565b6001600160a01b0316608052610147565b600080546001600160a01b038381166001600160a01b0319831681178455604051919092169283917f8be0079c531659141344cd1fd0a4f28419497f9722a3daafe3b4186f6b6457e09190a35050565b60006020828403121561012957600080fd5b81516001600160a01b038116811461014057600080fd5b9392505050565b608051612058610177600039600081816101070152818161055401528181610aa5015261118201526120586000f3fe608060405234801561001057600080fd5b50600436106101005760003560e01c8063715018a6116100975780639ce19365116100665780639ce1936514610259578063b8bb81261461026c578063f2fde38b1461027f578063fe5cd59a1461029257600080fd5b8063715018a61461021a5780638da5cb5b146102225780638e952bfe14610233578063937529ef1461024657600080fd5b80633e3bc3d7116100d35780633e3bc3d71461018d578063422c29a4146101b95780635027dbe2146101d957806359770438146101ee57600080fd5b80632307f882146101055780632fea7b81146101445780633a500451146101575780633d56ff661461017a575b600080fd5b7f00000000000000000000000000000000000000000000000000000000000000005b6040516001600160a01b0390911681526020015b60405180910390f35b610127610152366004611612565b6102a5565b61016a610165366004611634565b61030a565b604051901515815260200161013b565b61012761018836600461175f565b61033a565b61016a61019b366004611612565b6001600160a01b031660009081526001602052604090205460ff1690565b6101cc6101c7366004611612565b61061f565b60405161013b91906117bd565b6101ec6101e7366004611612565b610695565b005b6101276101fc366004611612565b6001600160a01b039081166000908152600660205260409020541690565b6101ec610948565b6000546001600160a01b0316610127565b610127610241366004611809565b61095c565b6101ec610254366004611612565b610b80565b6101ec610267366004611612565b610c4f565b6101ec61027a366004611612565b610d29565b6101ec61028d366004611612565b610f9c565b6101276102a0366004611857565b610fda565b6001600160a01b03818116600090815260056020526040812054909116156102e657506001600160a01b039081166000908152600560205260409020541690565b506001600160a01b039081166000908152600360205260409020541690565b919050565b60006002838360405161031e929190611942565b9081526040519081900360200190205460ff1690505b92915050565b3360009081526001602052604081205460ff168061036257506000546001600160a01b031633145b6103b35760405162461bcd60e51b815260206004820152601e60248201527f6f6e6c7920466163746f7279206f72206f776e65722063616e2063616c6c000060448201526064015b60405180910390fd5b6001600160a01b0384166103d95760405162461bcd60e51b81526004016103aa90611952565b6001600160a01b0383166103ff5760405162461bcd60e51b81526004016103aa90611952565b60405160200161041a90602080825260009082015260400190565b604051602081830303815290604052805190602001208260405160200161044191906119ad565b60405160208183030381529060405280519060200120036104745760405162461bcd60e51b81526004016103aa906119e0565b6000826040516020016104879190611a17565b60405160208183030381529060405290506002816040516104a89190611a44565b9081526040519081900360200190205460ff16156104d85760405162461bcd60e51b81526004016103aa90611a60565b6001600160a01b03858116600090815260056020526040902054161561054c5760405162461bcd60e51b815260206004820152602360248201527f746f6b656e20616c7265616479206c696e6b656420746f20616e206964656e7460448201526269747960e81b60648201526084016103aa565b6000610579827f000000000000000000000000000000000000000000000000000000000000000087611462565b9050600160028360405161058d9190611a44565b9081526040805160209281900383018120805460ff1916941515949094179093556001600160a01b0389811660008181526005855283812080546001600160a01b0319908116948916948517909155838252600690955292832080549094168117909355927fa8261d398ddc63db24cc53cd0c63c9464cabad1bc478ede2107b32c1c4010b7a9190a395945050505050565b6001600160a01b03811660009081526004602090815260409182902080548351818402810184019094528084526060939283018282801561068957602002820191906000526020600020905b81546001600160a01b0316815260019091019060200180831161066b575b50505050509050919050565b6001600160a01b0381166106bb5760405162461bcd60e51b81526004016103aa90611952565b336001600160a01b0382160361071e5760405162461bcd60e51b815260206004820152602260248201527f63616e6e6f742062652063616c6c6564206f6e2073656e646572206164647265604482015261737360f01b60648201526084016103aa565b6001600160a01b038082166000908152600360205260408082205433835291205482169116146107905760405162461bcd60e51b815260206004820152601f60248201527f6f6e6c792061206c696e6b65642077616c6c65742063616e20756e6c696e6b0060448201526064016103aa565b6001600160a01b03808216600090815260036020908152604080832080546001600160a01b03198116909155909316808352600490915291812054905b81811015610902576001600160a01b0383811660009081526004602052604090208054918616918390811061080457610804611a8c565b6000918252602090912001546001600160a01b0316036108fa576001600160a01b0383166000908152600460205260409020610841600184611aa2565b8154811061085157610851611a8c565b60009182526020808320909101546001600160a01b0386811684526004909252604090922080549190921691908390811061088e5761088e611a8c565b600091825260208083209190910180546001600160a01b0319166001600160a01b0394851617905591851681526004909152604090208054806108d3576108d3611ac3565b600082815260209020810160001990810180546001600160a01b0319169055019055610902565b6001016107cd565b50816001600160a01b0316836001600160a01b03167f35e6fc363a4bf723d53b26c1a751674aca9c3ead425f0591f84f5540ede86f1260405160405180910390a3505050565b6109506114ec565b61095a6000611519565b565b60006109666114ec565b6001600160a01b03831661098c5760405162461bcd60e51b81526004016103aa90611952565b6040516020016109a790602080825260009082015260400190565b60405160208183030381529060405280519060200120826040516020016109ce91906119ad565b6040516020818303038152906040528051906020012003610a015760405162461bcd60e51b81526004016103aa906119e0565b600082604051602001610a149190611ad9565b6040516020818303038152906040529050600281604051610a359190611a44565b9081526040519081900360200190205460ff1615610a655760405162461bcd60e51b81526004016103aa90611a60565b6001600160a01b038481166000908152600360205260409020541615610a9d5760405162461bcd60e51b81526004016103aa90611b04565b6000610aca827f000000000000000000000000000000000000000000000000000000000000000087611462565b90506001600283604051610ade9190611a44565b9081526040805160209281900383018120805460ff1916941515949094179093556001600160a01b0388811660008181526003855283812080546001600160a01b0319908116948916948517909155838252600486529381208054600181018255908252948120909401805490931681179092559290917f8e0c709111388f5480579514d86663489ab1f206fe6da1a0c4d03ac8c318b3c691a3949350505050565b610b886114ec565b6001600160a01b038116610bae5760405162461bcd60e51b81526004016103aa90611952565b6001600160a01b03811660009081526001602052604090205460ff16610c065760405162461bcd60e51b815260206004820152600d60248201526c6e6f74206120666163746f727960981b60448201526064016103aa565b6001600160a01b038116600081815260016020526040808220805460ff19169055517fd1fd5274f793d20291c0abfe42e1ef63213a11b34996d485f7afb8fe014248519190a250565b610c576114ec565b6001600160a01b038116610c7d5760405162461bcd60e51b81526004016103aa90611952565b6001600160a01b03811660009081526001602052604090205460ff1615610cda5760405162461bcd60e51b8152602060048201526011602482015270616c7265616479206120666163746f727960781b60448201526064016103aa565b6001600160a01b0381166000818152600160208190526040808320805460ff1916909217909155517f45eb8ac5344d2d3f306550fe6e969ca4190526313c512afed851d052bf2ab2fd9190a250565b6001600160a01b038116610d4f5760405162461bcd60e51b81526004016103aa90611952565b336000908152600360205260409020546001600160a01b0316610dc65760405162461bcd60e51b815260206004820152602960248201527f77616c6c6574206e6f74206c696e6b656420746f20616e206964656e746974796044820152680818dbdb9d1c9858dd60ba1b60648201526084016103aa565b6001600160a01b038181166000908152600360205260409020541615610e2e5760405162461bcd60e51b815260206004820152601960248201527f6e65772077616c6c657420616c7265616479206c696e6b65640000000000000060448201526064016103aa565b6001600160a01b038181166000908152600560205260409020541615610e965760405162461bcd60e51b815260206004820181905260248201527f696e76616c696420617267756d656e74202d20746f6b656e206164647265737360448201526064016103aa565b336000908152600360209081526040808320546001600160a01b0316808452600490925290912054606511610f1b5760405162461bcd60e51b815260206004820152602560248201527f6d617820616d6f756e74206f662077616c6c6574732070657220494420657863604482015264195959195960da1b60648201526084016103aa565b6001600160a01b03808316600081815260036020908152604080832080549587166001600160a01b031996871681179091558084526004835281842080546001810182559085529284209092018054909516841790945592517f8e0c709111388f5480579514d86663489ab1f206fe6da1a0c4d03ac8c318b3c69190a35050565b610fa46114ec565b6001600160a01b038116610fce57604051631e4fbdf760e01b8152600060048201526024016103aa565b610fd781611519565b50565b6000610fe46114ec565b6001600160a01b03841661100a5760405162461bcd60e51b81526004016103aa90611952565b60405160200161102590602080825260009082015260400190565b604051602081830303815290604052805190602001208360405160200161104c91906119ad565b604051602081830303815290604052805190602001200361107f5760405162461bcd60e51b81526004016103aa906119e0565b6000836040516020016110929190611ad9565b60405160208183030381529060405290506002816040516110b39190611a44565b9081526040519081900360200190205460ff16156110e35760405162461bcd60e51b81526004016103aa90611a60565b6001600160a01b03858116600090815260036020526040902054161561111b5760405162461bcd60e51b81526004016103aa90611b04565b600083511161117a5760405162461bcd60e51b815260206004820152602560248201527f696e76616c696420617267756d656e74202d20656d707479206c697374206f66604482015264206b65797360d81b60648201526084016103aa565b60006111a7827f000000000000000000000000000000000000000000000000000000000000000030611462565b905060005b845181101561131357604080516001600160a01b038916602082015201604051602081830303815290604052805190602001208582815181106111f1576111f1611a8c565b60200260200101510361126c5760405162461bcd60e51b815260206004820152603b60248201527f696e76616c696420617267756d656e74202d2077616c6c657420697320616c7360448201527f6f206c697374656420696e206d616e6167656d656e74206b657973000000000060648201526084016103aa565b816001600160a01b0316631d38124086838151811061128d5761128d611a8c565b60200260200101516001806040518463ffffffff1660e01b81526004016112c7939291909283526020830191909152604082015260600190565b6020604051808303816000875af11580156112e6573d6000803e3d6000fd5b505050506040513d601f19601f8201168201806040525081019061130a9190611b48565b506001016111ac565b50604080513060208201526001600160a01b038316916353d413c5910160408051601f198184030181529082905280516020909101206001600160e01b031960e084901b1682526004820152600160248201526044016020604051808303816000875af1158015611388573d6000803e3d6000fd5b505050506040513d601f19601f820116820180604052508101906113ac9190611b48565b5060016002836040516113bf9190611a44565b9081526040805160209281900383018120805460ff1916941515949094179093556001600160a01b0389811660008181526003855283812080546001600160a01b0319908116948916948517909155838252600486529381208054600181018255908252948120909401805490931681179092559290917f8e0c709111388f5480579514d86663489ab1f206fe6da1a0c4d03ac8c318b3c691a395945050505050565b60008060405180602001611475906115ee565b601f1982820381018352601f9091011660408181526001600160a01b038781166020840152861681830152805180830382018152606083019091529192506000906114c69084908490608001611b6a565b60405160208183030381529060405290506114e18782611569565b979650505050505050565b6000546001600160a01b0316331461095a5760405163118cdaa760e01b81523360048201526024016103aa565b600080546001600160a01b038381166001600160a01b0319831681178455604051919092169283917f8be0079c531659141344cd1fd0a4f28419497f9722a3daafe3b4186f6b6457e09190a35050565b6000808360405160200161157d9190611a44565b60405160208183030381529060405280519060200120905060008360200184518381836000f592505050803b6115b257600080fd5b6040516001600160a01b038216907ff40fcec21964ffb566044d083b4073f29f7f7929110ea19e1b3ebe375d89055e90600090a2949350505050565b61048980611b9a83390190565b80356001600160a01b038116811461030557600080fd5b60006020828403121561162457600080fd5b61162d826115fb565b9392505050565b6000806020838503121561164757600080fd5b823567ffffffffffffffff81111561165e57600080fd5b8301601f8101851361166f57600080fd5b803567ffffffffffffffff81111561168657600080fd5b85602082840101111561169857600080fd5b6020919091019590945092505050565b634e487b7160e01b600052604160045260246000fd5b604051601f8201601f1916810167ffffffffffffffff811182821017156116e7576116e76116a8565b604052919050565b600082601f83011261170057600080fd5b813567ffffffffffffffff81111561171a5761171a6116a8565b61172d601f8201601f19166020016116be565b81815284602083860101111561174257600080fd5b816020850160208301376000918101602001919091529392505050565b60008060006060848603121561177457600080fd5b61177d846115fb565b925061178b602085016115fb565b9150604084013567ffffffffffffffff8111156117a757600080fd5b6117b3868287016116ef565b9150509250925092565b602080825282518282018190526000918401906040840190835b818110156117fe5783516001600160a01b03168352602093840193909201916001016117d7565b509095945050505050565b6000806040838503121561181c57600080fd5b611825836115fb565b9150602083013567ffffffffffffffff81111561184157600080fd5b61184d858286016116ef565b9150509250929050565b60008060006060848603121561186c57600080fd5b611875846115fb565b9250602084013567ffffffffffffffff81111561189157600080fd5b61189d868287016116ef565b925050604084013567ffffffffffffffff8111156118ba57600080fd5b8401601f810186136118cb57600080fd5b803567ffffffffffffffff8111156118e5576118e56116a8565b8060051b6118f5602082016116be565b9182526020818401810192908101908984111561191157600080fd5b6020850194505b83851015611933578435825260209485019490910190611918565b80955050505050509250925092565b8183823760009101908152919050565b6020808252601f908201527f696e76616c696420617267756d656e74202d207a65726f206164647265737300604082015260600190565b60005b838110156119a457818101518382015260200161198c565b50506000910152565b60208152600082518060208401526119cc816040850160208701611989565b601f01601f19169190910160400192915050565b6020808252601f908201527f696e76616c696420617267756d656e74202d20656d70747920737472696e6700604082015260600190565b642a37b5b2b760d91b815260008251611a37816005850160208701611989565b9190910160050192915050565b60008251611a56818460208701611989565b9190910192915050565b60208082526012908201527139b0b63a1030b63932b0b23c903a30b5b2b760711b604082015260600190565b634e487b7160e01b600052603260045260246000fd5b8181038181111561033457634e487b7160e01b600052601160045260246000fd5b634e487b7160e01b600052603160045260246000fd5b6213d25160ea1b815260008251611af7816003850160208701611989565b9190910160030192915050565b60208082526024908201527f77616c6c657420616c7265616479206c696e6b656420746f20616e206964656e6040820152637469747960e01b606082015260800190565b600060208284031215611b5a57600080fd5b8151801515811461162d57600080fd5b60008351611b7c818460208801611989565b835190830190611b90818360208801611989565b0194935050505056fe608060405234801561001057600080fd5b5060405161048938038061048983398101604081905261002f91610271565b6001600160a01b03821661008a5760405162461bcd60e51b815260206004820152601f60248201527f696e76616c696420617267756d656e74202d207a65726f20616464726573730060448201526064015b60405180910390fd5b6001600160a01b0381166100e05760405162461bcd60e51b815260206004820152601f60248201527f696e76616c696420617267756d656e74202d207a65726f2061646472657373006044820152606401610081565b817f821f3e4d3d679f19eacc940c87acf846ea6eae24a63058ea750304437a62aafc556000826001600160a01b031663aaf10f426040518163ffffffff1660e01b8152600401602060405180830381865afa158015610143573d6000803e3d6000fd5b505050506040513d601f19601f8201168201806040525081019061016791906102a4565b6040516001600160a01b03848116602483015291925060009183169060440160408051601f198184030181529181526020820180516001600160e01b031663189acdbd60e31b179052516101bb91906102c6565b600060405180830381855af49150503d80600081146101f6576040519150601f19603f3d011682016040523d82523d6000602084013e6101fb565b606091505b505090508061024c5760405162461bcd60e51b815260206004820152601660248201527f496e697469616c697a6174696f6e206661696c65642e000000000000000000006044820152606401610081565b505050506102f5565b80516001600160a01b038116811461026c57600080fd5b919050565b6000806040838503121561028457600080fd5b61028d83610255565b915061029b60208401610255565b90509250929050565b6000602082840312156102b657600080fd5b6102bf82610255565b9392505050565b6000825160005b818110156102e757602081860181015185830152016102cd565b506000920191825250919050565b610185806103046000396000f3fe60806040526004361061001e5760003560e01c80632307f882146100d4575b60006100487f821f3e4d3d679f19eacc940c87acf846ea6eae24a63058ea750304437a62aafc5490565b6001600160a01b031663aaf10f426040518163ffffffff1660e01b8152600401602060405180830381865afa158015610085573d6000803e3d6000fd5b505050506040513d601f19601f820116820180604052508101906100a9919061011f565b90503660008037600080366000846127105a03f43d806000803e8180156100cf57816000f35b816000fd5b3480156100e057600080fd5b507f821f3e4d3d679f19eacc940c87acf846ea6eae24a63058ea750304437a62aafc546040516001600160a01b03909116815260200160405180910390f35b60006020828403121561013157600080fd5b81516001600160a01b038116811461014857600080fd5b939250505056fea264697066735822122009556a148bb3c280fbdf086ff90c3b68c5bb2349fa1487d2bb78fa28e65f9b7d64736f6c634300081c0033a26469706673582212201ae0e15f4a63a30ca2d1a76e1b102569f693122870275f397a5619caafaa516464736f6c634300081c0033","linkReferences":{}},"methodIdentifiers":{"addTokenFactory(address)":"9ce19365","createIdentity(address,string)":"8e952bfe","createIdentityWithManagementKeys(address,string,bytes32[])":"fe5cd59a","createTokenIdentity(address,address,string)":"3d56ff66","getIdentity(address)":"2fea7b81","getToken(address)":"59770438","getWallets(address)":"422c29a4","implementationAuthority()":"2307f882","isSaltTaken(string)":"3a500451","isTokenFactory(address)":"3e3bc3d7","linkWallet(address)":"b8bb8126","owner()":"8da5cb5b","removeTokenFactory(address)":"937529ef","renounceOwnership()":"715018a6","transferOwnership(address)":"f2fde38b","unlinkWallet(address)":"5027dbe2"},"id":5}